:020000040800F2
:10000000600400209D0100080B0B0008B30A0008E3
:10001000090B0008A9020008F70C00080000000006
:100020000000000000000000000000000F0B0008AE
:10003000AB020008000000000D0B0008110B0008C7
:10004000B7010008B7010008B7010008B7010008B0
:10005000B7010008B7010008B7010008B7010008A0
:10006000B7010008B7010008B7010008B701000890
:10007000B7010008B7010008B7010008B701000880
:10008000B7010008B7010008B7010008B701000870
:10009000B7010008B7010008B7010008B701000860
:1000A000B7010008B7010008B7010008B701000850
:1000B000B7010008B7010008B7010008B701000840
:1000C000B7010008B7010008B7010008B701000830
:1000D000B7010008B7010008B7010008B701000820
:1000E000B7010008B7010008B7010008B701000810
:1000F000B7010008B7010008B7010008B701000800
:10010000B7010008B7010008B7010008B7010008EF
:10011000B7010008B7010008B7010008B7010008DF
:10012000B7010008B7010008B7010008B7010008CF
:10013000B7010008B7010008B7010008B7010008BF
:10014000B7010008B7010008B7010008B7010008AF
:10015000B7010008B7010008B7010008B70100089F
:10016000B7010008B7010008B7010008B70100088F
:10017000B7010008B7010008B7010008000000003F
:10018000B7010008B7010008DFF80CD000F07AF8DA
:1001900000480047390D00086004002006488047E9
:1001A00006480047FEE7FEE7FEE7FEE7FEE7FEE75C
:1001B000FEE7FEE7FEE7FEE7A90B0008890100085D
:1001C0002DE9F05F0546002092469B46884606468C
:1001D000814640241BE0284641464746224600F01F
:1001E00041F853465A46C01A914110D31146184659
:1001F000224600F028F82D1A67EB01084F462246E8
:100200000120002100F01FF817EB00094E41201ECD
:10021000A4F10104DFDC484631462A464346BDE8E6
:10022000F09FD2B201E000F8012B491EFBD27047CB
:100230000022F6E710B513460A4604461946FFF7B2
:10024000F0FF204610BD202A04DB203A00FA02F11C
:10025000002070479140C2F1200320FA03F31943B4
:1002600090407047202A04DB203A21FA02F0002156
:10027000704721FA02F3D040C2F1200291400843B6
:1002800019467047064C074D06E0E06840F0010350
:1002900094E8070098471034AC42F6D3FFF778FF94
:1002A000E40D0008040E0008FEE77047014880686E
:1002B000704700000C000020024881680278114459
:1002C000816070470C0000200B4810B5016841F4B4
:1002D00000710160016841F480610160016841F4CE
:1002E00080710160032000F061F8002000F006F842
:1002F00000F024F8002010BD003C024070B50D4D08
:1003000004464FF47A712878B1FBF0F00A49096885
:10031000B1FBF0F000F0D6FA48B9102C07D2002259
:100320002146501E00F022F800206C6070BD0120B4
:1003300070BD00000C000020180000200A4808B51D
:10034000016841F480410160006800F48040009041
:100350000548001F016841F080510160006800F00D
:100360008050009008BD000044380240F0B40E4BAD
:100370001B680C46C3F30223C3F10705042D00D903
:100380000425191D072901D2002300E0DB1E0126E8
:1003900006FA05F1491E214099409E40761E1640FE
:1003A0003143F0BC00F0A8BC0CED00E0064900F0C1
:1003B000070208684FF6FF03184040EA0220034A8C
:1003C00010430860704700000CED00E00000FA05E3
:1003D0002DE9F0470E46050065D0DFF81481D8F806
:1003E0000000F7B200F00F00B04207D288F80070AA
:1003F000D8F8000000F00F00B04254D128683D4CFE
:10040000810712D5400703D5206840F4E0502060F2
:100410002878000703D5206840F4604020602068F9
:10042000A96820F0F000084320602878C0072DD08C
:10043000304968680839012812D0022813D00328EF
:1004400011D00968890700292DDA216821F00301FC
:1004500001432160FFF72AFF814641F2883A0EE00E
:1004600009688903EFE709688901ECE7FFF71EFFD8
:10047000A0EB0901514502D90320BDE8F0872068AF
:10048000696800F00C00B0EB810FEFD1D8F80010D4
:10049000404601F00F01B14207D90770006800F033
:1004A0000F00B04201D00120E7E72878400705D5CA
:1004B0002068E96820F4E0500843206028780007AD
:1004C00006D52068296920F4604040EAC100206018
:1004D00000F018F82168084AC1F30311515CC840C4
:1004E0000649086006480068FFF708FF0020C4E7D7
:1004F000003C024008380240D40D000818000020DB
:1005000010000020154810B5006810F00C021448C7
:1005100013D01449042A0FD0082A0ED10F4C241FDF
:100520002268236802F03F025B0207D52068C0F30F
:100530008810A0FB010106E0084610BD2168C1F348
:100540008811A1FB00010023FFF73AFE2168C1F3E7
:100550000141491C4900B0FBF1F010BD08380240D0
:100560000024F40040787D012DE9F84F040076D096
:100570002078DFF838A3CE4DC00749D0DAF8001054
:100580005046C1F38101012908D00068C0F3810001
:1005900002280AD1281D0068400206D52868800379
:1005A00036D560680028E2D032E06068B0F5803F60
:1005B00010D0B0F5A02F286810D020F4803028602B
:1005C000286820F4802028606068A0B1FFF76EFEE4
:1005D00006460CE0286840F48030F4E740F48020C0
:1005E0002860F7E7FFF762FE801B642873D828684D
:1005F0008003F7D50CE0FFF759FE064605E000BF83
:10060000FFF754FE801B6428F0D828688003F7D4D5
:100610002078DFF8A08280074FF000093ED5DAF895
:100620000010504611F00C0F09D00068C0F3810093
:1006300002280BD19D48001F0068400206D428689C
:10064000800715D5E068012809D111E0E068B8B14C
:100650000120C8F80000FFF729FE064605E020E16A
:10066000FFF724FE801B0228C0D828688007F7D532
:100670002868216920F0F80040EAC10028600DE0F8
:10068000C8F80090FFF712FE064604E0FFF70EFEE2
:10069000801B02281FD828688007F7D4207800071D
:1006A00022D5824E844861696C3671B101210160A6
:1006B000FFF7FCFD074604E0FFF7F8FDC01B02282A
:1006C00009D830688007F7D50EE0C0F80090FFF732
:1006D000EDFD074605E082E0FFF7E8FDC01B0228BC
:1006E0007DD830688007F7D42078400768D5DFF8D8
:1006F000BCB100270BF1380BDBF80000C0000BD4B5
:10070000DBF8001041F08051CBF80010DBF800005E
:10071000012700F080500090684E3068C00510D46A
:10072000306840F480703060FFF7C0FD009005E055
:10073000FFF7BCFD0099401A022850D83068C00568
:10074000F6D55A4EA068683601280FD005283068C3
:1007500010D020F001003060306820F004003060DC
:10076000A068B8B1FFF7A2FD00900FE0306840F03C
:100770000100F4E740F004003060F7E7FFF796FD72
:100780000099411A41F28830814266D8306880076A
:10079000F4D50EE0FFF78AFD009007E0FFF786FD35
:1007A0000099411A41F28830814256D8306880075A
:1007B000F4D42FB1DBF8001021F08051CBF80010F9
:1007C000A069D0B3DAF800205146C2F38102022AB0
:1007D0004AD00228484607D0C8F8600000E03CE054
:1007E000FFF764FD04463BE04746C8F86000FFF7AA
:1007F0005DFD064605E000BFFFF758FD801B02289F
:100800002BD828688001F7D4D4E907010843A16AEE
:100810002B4A490802EB0141626A41EA821108430E
:1008200094F82C1040EA01612048001F016001206B
:100830003866FFF73BFD044605E034E0FFF736FD80
:10084000001B022809D828688001F7D52BE000BFDB
:10085000FFF72CFD001B022802D90320BDE8F88F0A
:1008600028688001F4D41EE00128F7D00868E26906
:1008700000F48001914214D1226A00F03F019142BC
:100880000FD147F6C071626A0140914209D1A26A54
:1008900000F44031914204D1E16A00F07060884276
:1008A00001D00120DAE70020D8E700000838024034
:1008B0000038024000004742800E4742007000406E
:1008C0000000FFFF10B5401EB0F1807F01D3012072
:1008D00010BD4FF0E02460610F21601700F00CFAAA
:1008E0000020A06107202061002010BD70B590F8A5
:1008F0003C20012A32D0012480F83C40022280F8BA
:100900003D2003685A689D6822F070060A683243E9
:100910005A60134B02689A4214D0B2F1804F11D042
:10092000104B9A420ED0104B9A420BD00F4B9A426A
:1009300008D00F4B9A4205D00E4B9A4202D00E4B74
:100940009A4204D1496825F080031943916080F8E8
:100950003D40002180F83C10084670BD022070BD6B
:10096000000001400004004000080040000C00406E
:1009700000040140004001400018004010B5040090
:1009800003D094F83D0010B107E0012010BD002015
:1009900084F83C00204600F00DF8022084F83D0069
:1009A000211D206800F00EF9012084F83D00002090
:1009B00010BD000008B500680649884208D1064805
:1009C000016841F001010160006800F00100009041
:1009D00008BD0000000001404438024070B50446E4
:1009E00090F83C00012817D0012584F83C500220E3
:1009F00084F83D002068826822F0770222F47F426A
:100A000082600868502830D00DDC20284DD005DCED
:100A100098B310283BD148E0022070BD302844D064
:100A2000402834D139E0602828D0702806D0B0F5AD
:100A3000805F2CD0B0F5005F29D10AE0CB68D1E906
:100A40000121206800F022F92068816841F07701D7
:100A500009E0CB68D1E90121206800F017F920688E
:100A6000816841F48041816011E0CA68496820686A
:100A700000F01EF95021206807E016E0CA684968B6
:100A8000206800F026F96021206800F009F984F858
:100A90003D50002084F83C0070BDCA684968206859
:100AA00000F006F940212068EFE722680146104671
:100AB000EBE7FEE710B586B00024124800940194DD
:100AC0000294039404940E4905940160A721C0E99F
:100AD00001144FF6FE71C0E9031444618461FFF70D
:100AE0004DFF4FF48050009069460648FFF776FFAF
:100AF000049404A903480594FFF7F8FE06B010BD5E
:100B0000000001401C000020FEE77047704770475E
:100B100010B5FFF7D1FB02480168491C016010BD08
:100B20000800002030B593B030216846FFF780FB05
:100B300014210CA8FFF77CFB19480025016841F03F
:100B400080510160006800F08050119015480168E4
:100B500041F4804101600068022400F4804011905B
:100B60000120039010200490009406940820CDE901
:100B70000750A820CDE9090404200B906846FFF730
:100B8000F3FC0CA90F2081E831004FF4A0500F9026
:100B9000E002109005210CA8FFF71AFC13B030BD3D
:100BA00040380240007000400548016841F470017F
:100BB000016003494FF00060803908607047000011
:100BC00088ED00E0F0B50268254C264D264E274FF3
:100BD000274B4FF0804CA04209D0604507D0A84277
:100BE00005D0B04203D0B84201D0984204D122F0DF
:100BF000700E4A6842EA0E02A0421BD0604519D02E
:100C0000A84217D0B04215D0B84213D0984211D0A4
:100C1000184DA8420ED0184DA8420BD0174DA8422F
:100C200008D0174DA84205D0164DA84202D0164D47
:100C3000A84203D122F44075CA682A434D6922F0C4
:100C400080022A4302608A68C2620A688262A04205
:100C500001D0984201D10969016301214161F0BDD0
:100C6000000001400004004000080040000C00406B
:100C700000040140004001400044014000480140A0
:100C800000180040001C00400020004010B584689F
:100C900042EA032224F47F440A432243826010BDC7
:100CA000826822F070020A4342F0070181607047B7
:100CB00010B5036A046A24F001040462846924F014
:100CC000F00444EA021423F00A020A438461026237
:100CD00010BD10B5036A23F0100303628369046A30
:100CE00023F4704343EA023224F0A00343EA0111E3
:100CF0008261016210BDFEE70907090E002804DBCE
:100D000000F1E02080F80014704700F00F0000F1BF
:100D1000E02080F8141D704702E008C8121F08C1C7
:100D2000002AFAD170477047002001E001C1121F6C
:100D3000002AFBD17047000008B5FFF7C5FAFFF79E
:100D4000F1FE1848184900220068B0FBF1F1491E75
:100D5000B1F1807F09D24FF0E0204161134BF021C7
:100D600083F8141D8261072101611148016841F077
:100D700080010160016801F080010091016841F08B
:100D800001010160006800F001000090FFF792FE91
:100D9000084C00BF00F010F8206000F013F860600D
:100DA000F8E700001800002040420F000FE000E0CC
:100DB0003038024000000020014800687047000001
:100DC00008000020024800684FF47A7148437047D9
:100DD00008000020000000000000000001020304E1
:100DE00006070809040E0008000000201C0000008F
:100DF000180D0008200E00081C000020440400000C
:100E0000280D0008000000000000000000000000A5
:100E10000100000010000000000000000024F400A9
:040000050800018965
:00000001FF
